:1000000027C04BC04AC049C048C047C146C045C0D0
:1000100044C043C042C041C040C03FC03EC00102D6
:100020000000040000000000010204081020200469
:100030001008020202020202020202020000000094
:100040003600000000003800000000003700AA0061
:1000500011241FBECFE5D2E0DEBFCDBF10E0A0E689
:10006000B0E0E0E0F5E002C005900D92A636B107E1
:10007000D9F720E0A6E6B0E001C01D92A338B20790
:10008000E1F710E0C0E5D0E003C02297FE0132D2D4
:10009000CE34D107D1F722D231C2B2CF0F931F9302
:1000A000CF93DF93C6E6D0E08E0161E0888180D1F6
:1000B000229660E0F8018081B4D1F0E0CE36DF070F
:1000C00099F762E082E074D162E070E080E790E04E
:1000D00071D06CE070E080E790E0DF91CF911F91EC
:1000E0000F918BC00F931F93CF93DF9380E790E026
:1000F00088D080E790E0CDD0811111C080916E0052
:1001000090916F00833091052CF010926F00109247
:100110006E0005C0019690936F0080936E0006E616
:1001200010E0C0E0D0E0F80180810E5F1F4F61E079
:1001300020916E0030916F002C173D0709F060E0B0
:1001400070D12196C430D10571F7DF91CF911F9105
:100150000F91089580E790E021D080916400909104
:100160006500909367008093660080916200909193
:100170006300909369008093680080916000909183
:10018000610090936B0080936A0080917800909159
:10019000790090936D0080936C000895FC011082AB
:1001A0001182128213828AE090E095838483168202
:1001B000178208950F931F93CF93DF931F92CDB7AC
:1001C000DEB78C01FC016783862F69835FD1F8015C
:1001D00016826981862F5AD1892B19F083E0F801A4
:1001E0008683A5D0F80160837183828393830F9007
:1001F000DF91CF911F910F910895FC017583648366
:100200000895FF920F931F93CF93DF93EC018F819B
:100210003DD1FF24F394892B09F4F12C8E81982F82
:10022000977F9E8386958170F81649F080D0688309
:1002300079838A839B838E8192E089271FC077D040
:10024000088119812A813B81601B710B820B930B02
:100250000C811D8120E030E0601771078207930751
:1002600070F08E8181708F1551F061D06883798331
:100270008A839B838E8191E0892788608E838E811B
:1002800083FB882780F9DF91CF911F910F91FF9019
:100290000895FC018681817008951F920F920FB618
:1002A0000F9211242F933F938F939F93AF93BF93FC
:1002B00080917B0090917C00A0917D00B0917E00A8
:1002C00030917A0026E0230F2D3720F40296A11DED
:1002D000B11D05C029E8230F0396A11DB11D209370
:1002E0007A0080937B0090937C00A0937D00B09374
:1002F0007E0080917F0090918000A0918100B0915C
:1003000082000196A11DB11D80937F009093800013
:10031000A0938100B0938200BF91AF919F918F9184
:100320003F912F910F900FBE0F901F9018952FB7F0
:10033000F89460917B0070917C0080917D00909199
:100340007E002FBF089578948AB582608ABD8AB5F1
:1003500081608ABD83B7826083BF83B7816083BFBA
:1003600089B7826089BF80B7826080BF80B78160B3
:1003700080BF329A319A3098379A0895823081F04E
:1003800018F4813051F00895833019F0843009F069
:1003900008958CB58F7D8CBD08958AB58F7702C086
:1003A0008AB58F7D8ABD08958CB580648CBD089513
:1003B000CF93DF9390E0FC01E85DFF4F2491FC01B7
:1003C000EE5CFF4F8491882349F190E0880F991FDC
:1003D000FC01E85BFF4FA591B4918E5B9F4FFC0140
:1003E000C591D4919FB7611108C0F8948C91209564
:1003F00082238C93888182230AC0623051F4F8945E
:100400008C91322F309583238C938881822B888323
:1004100004C0F8948C91822B8C939FBFDF91CF9175
:1004200008950F931F93CF93DF931F92CDB7DEB73D
:10043000282F30E0F901E25EFF4F8491F901E85D79
:10044000FF4F1491F901EE5CFF4F04910023C1F0BE
:10045000882319F0698392DF6981E02FF0E0EE0FC5
:10046000FF1FEE5BFF4FA591B4919FB7F8948C915D
:10047000611103C01095812301C0812B8C939FBF14
:100480000F90DF91CF911F910F910895CF93DF933C
:10049000282F30E0F901E25EFF4F8491F901E85D19
:1004A000FF4FD491F901EE5CFF4FC491CC2389F04A
:1004B000811164DFEC2FF0E0EE0FFF1FE45CFF4FD3
:1004C000A591B4912C912D2381E090E021F480E05E
:1004D00002C080E090E0DF91CF91089534DF64DFC7
:1004E000DDDDC0E0D0E0FEDD2097E9F389DDFBCF64
:1004F000EE0FFF1F0590F491E02D0994F894FFCFC3
:06050000010003000400ED
:00000001FF
